:100000000C9468220C9490220C9490220C949022D0
:100010000C9490220C9490220C9490220C94902298
:100020000C9490220C9490220C9490220C94902288
:100030000C9490220C9490220C9490220C94902278
:100040000C942A280C9490220C9490220C949022C8
:100050000C9490220C9490220C9490220C94902258
:100060000C9490220C9490220000000005000100E6
:1000700000020D0602F4040005040601F407000A5C
:100080000C0A00F5160009100A01F32800100D10E3
:1000900001F442000B0D0C01F4540002040401F4BD
:1000A000550004110601F45E0004110601F4670016
:1000B00005050701F46B0006080B03F97100020443
:1000C000050200720004010601FC73000201050133
:1000D000007400050D0500F47D00080D0A01F48A86
:1000E00000040D0A03F49100090D0A01F4A00008B0
:1000F0000D0A01F4AD00070D0A02F4B900090D0A5A
:1001000001F4C800090D0A01F4D700080D0A00F433
:10011000E400090D0A01F4F300080D0A01F40001DE
:10012000020A0501F70301030C0501F8080109099A
:100130000B01F8130109040B01FB180109090B015C
:10014000F82301090D0A01F4320111101201F454CF
:10015000010C0D0C00F468010B0D0C01F47A010B7D
:100160000D0D01F48C010B0D0D01F49E01090D0B19
:1001700001F4AD01080D0B01F4BA010C0D0E01F4F0
:10018000CE010B0D0D01F4E001020D0502F4E401B6
:10019000070D0A01F4F0010B0D0C01F40202080D29
:1001A0000A01F40F020D0D0F01F425020B0D0D01D4
:1001B000F437020D0D0E01F44D020A0D0C01F45E30
:1001C000020D0E0E01F475020C0D0D01F489020AE8
:1001D0000D0C01F49A02090D0B01F4A9020B0D0D8F
:1001E00001F4BB020B0D0C00F4CD02110D1100F453
:1001F000E9020C0D0C00F4FD020C0D0C00F41103CF
:100200000A0D0B01F4220303110501F42903050D66
:100210000500F4320303110500F439030707080150
:10022000F440030A010A0003420304030500F444F6
:1002300003090A0A01F75003090D0A01F45F0308D4
:100240000A0901F76903080D0A01F47603080A0A8E
:1002500001F78003040D0501F48703080E0A01F776
:100260009503080D0A01F4A203020D0401F4A6038C
:1002700004110400F4AF03090D0901F4BE03020DDB
:100280000401F4C2030D0A0F01F7D303080A0A019F
:10029000F7DD03080A0A01F7E703090D0A01F7F67B
:1002A00003080D0A01F70304050A0601F70A04080A
:1002B0000A0901F71404040C0501F51A04080A0AD6
:1002C00001F72404090A0900F730040D0A0D00F7AC
:1002D0004104080A0900F74B04090E0900F75B0402
:1002E000070A0901F7640404110601F46D04021100
:1002F0000402F4720404110601F47B0407030901EB
:10030000F9FFFFF8C0DEF72009864191FF1304C30F
:1003100020C8FF89826190101F14DA3D1E83407847
:100320001708F47A3533F040203810EC20C620C688
:1003300040C6406C803900013C02770263046304CC
:1003400077083C0E0660CC1981E0180F0336C2D83E
:10035000730631E3C4FE13266CCCCCC46623108C28
:100360004663333332664C80257EA50030C33F3070
:10037000C30CD6F0C00844211084421108003C662A
:1003800042C3C3C3C3C3C3C342663C113F33333309
:1003900033303E31B07830181C1C1C181810080778
:1003A000F83C66C3C303061C0703C3C3663C0C18B2
:1003B0007162C9A346FE183060C07F20100808078C
:1003C000F38C030180F06C63E01E3198780C06F327
:1003D0008D83C1E0D06C63E0FF030206040C0818B3
:1003E00018181030303E31B0783C1B18F8C6C1E008
:1003F000F06C63E03C66C2C3C3C3673B0303C266E1
:100400003CC00030C0000064A00081C78E0C078093
:10041000700E0180FF80001FF000700E01C01838C0
:1004200071C080003E31B0783018183818180C00B0
:1004300000018003F0060E06018600661DBB31CF69
:1004400018C79863CC31E611B399CCF786000180C8
:100450000070400FE00600F00F00901981981083A3
:100460000C3FC204606606C030FF183303606C0D99
:10047000833FC606C0780F01E06FF81F861981A080
:100480003C0180300600C0680D831861F0FF18330E
:1004900003603C0780F01E03C0780F0360CFF0FFBD
:1004A000E030180C0603FD80C06030180FF8FFC064
:1004B000C0C0C0C0FEC0C0C0C0C0C00F830E606658
:1004C00003C00C00C1FC03C0360360730F0F10C0E3
:1004D000780F01E03C0780FFFE03C0780F01E03C8D
:1004E00006FFFFFFC0060C183060C183078F1E2770
:1004F00080C0D8330C630CC1B83F0730C318630603
:10050000606C0CC0C0C0C0C0C0C0C0C0C0C0C0FF14
:10051000E03F01FC1FE0FD05EC6F637913CD9E6C9D
:10052000F1478E3C7180E07C0FC1E83D8798F11E59
:1005300033C3786F07E07C0E0F8183180CC06C0109
:10054000E00F007803C01B01980C60C0F800FF307A
:100550006C0F03C0F06FF300C0300C0300C0000F3D
:100560008183180CC06C01E00F007803C01B019858
:100570006C60C0FB0008FF8C0EC06C06C06C0CFFEA
:100580008C0EC06C06C06C06C0703F186C0F03C0A8
:100590001E01F00E00F03C0D863F00FF8603018037
:1005A000C06030180C06030180C0C0780F01E03C29
:1005B0000780F01E03C0780F01B061F0C06C0D81A0
:1005C00010630C610460CC1901603C070060C181BC
:1005D00030E19870CC286626211330C8986C4C14F2
:1005E000340A1A0707030380818060630C30C198C6
:1005F0000F00E00600F019019830C60E6060C036AA
:100600000630C30C1981D80F006006006006006038
:100610000600FFC060300C060301C06030180603FE
:1006200000FFC0FB6DB6DB6DB6E084108410841053
:10063000841080EDB6DB6DB6DBE03060A244D8A15B
:1006400080FFC0C6307E71B0C060F3DB0D86C73D51
:10065000C0C060301BCE360F0783C1E0F07C6DE078
:100660003C66C3C0C0C0C0C3663C0303033B67C352
:10067000C3C3C3C3C3673B3C66C3C3FFC0C0C36639
:100680003C366F66666666603B67C3C3C3C3C3C35D
:10069000673B0303C67CC0C0C0DEE3C3C3C3C3C3A0
:1006A000C3C3C3C3FFFFC03003333333333333E03B
:1006B000C06030184C466361F0EC6231986C30FFDA
:1006C000FFFFC0DEF71CF0C7863C31E18F0C78637A
:1006D000C31E18C0DEE3C3C3C3C3C3C3C3C33C66E6
:1006E000C3C3C3C3C3C3663CDE71B0783C1E0F07EF
:1006F00083E36F30180C003B67C3C3C3C3C3C36736
:100700003B030303DF318C6318C6003EE3C0C0E047
:100710003C07C3E37E66F666666667C3C3C3C3C3AE
:10072000C3C3C3C77BC1A098CC4221B0D0281C0C46
:1007300000C61E3891C4CA66D316D0A6871C38C01E
:10074000C6004362361C181C3C266243C12198CC6B
:100750004261B0D0381C0C0603010300FE0C30C10E
:10076000861820C1FC3666666ECE66666630FFFF70
:10077000FFFFC0C666666737666666C061243800DC
:10078000000000060001000002120803EF05000649
:10079000060801F00A000D100D00F124000B140DE5
:1007A00001EF400014111501F06B000E111001F063
:1007B000890002060501F08B0005170802EF9A0078
:1007C00005170801EFA90007070901EFB0000A0BA0
:1007D0000E02F6BE0002060702FFC0000602080174
:1007E000F9C20002020602FFC30007120700EFD39E
:1007F000000B110D01F0EB0005110D03F0F6000BDD
:10080000110D01F00E010B110D01F026010B110D60
:1008100001F03E010B110D01F056010B110D01F01D
:100820006E010B110D01F086010B110D01F09E01FF
:100830000B110D01F0B601020D0602F4BA0102100F
:100840000602F5BE010C0C0E01F5D0010C060E01DE
:10085000F8D9010C0C0E01F5EB010A120D02EF02A2
:100860000216151801EF3C0210121000EF60020D85
:10087000121002EF7E020F121101EFA0020E1211F0
:1008800002EFC0020C120F02EFDB020B120E02EF9E
:10089000F40210121201EF18030D121102EF3603C9
:1008A00002120702EF3B0309120D01EF50030E1273
:1008B0001002EF70030A120E02EF870310121402E7
:1008C000EFAB030D121202EFC90311121301EFF087
:1008D000030C121002EF0B0411131301EF34040E7A
:1008E000121102EF54040E121001EF74040C120FD7
:1008F00001EF8F040D121102EFAD040F120F00EF84
:10090000CF0416121600EF01050F121000EF230599
:1009100010121000EF47050D120F01EF65050417C7
:100920000702EF710507120700EF810504170701A1
:10093000EF8D0509090B01F098050F010DFF049AD1
:100940000505040601EF9D050C0D0D01F4B1050C24
:10095000120D01EFCC050A0D0C01F4DD050B120D93
:1009600001EFF6050B0D0D01F4080605120701EF66
:1009700014060B120D01F42D060A120D01EF4406A8
:1009800002120502EF490604170600EF55060B1286
:100990000C01EF6E0602120501EF7306110D130133
:1009A000F48F060A0D0D01F4A0060B0D0D01F4B233
:1009B000060C110D01F4CC060B110D01F4E4060632
:1009C0000D0801F4EE060A0D0C01F4FF06051007F0
:1009D00001F109070A0D0D01F41A070C0D0C00F4C2
:1009E0002E07110D1100F44A070B0D0B00F45C07E4
:1009F0000B120B00F475070A0D0C01F4860705179E
:100A00000801EF950702170602EF9B07051708027A
:100A1000EFAA070A050C01F6FFFFFFF0F0CF3CF349
:100A20008A20063031031818C7FFBFFC310318189D
:100A3000C7FFBFFC31011818C0C606300403E1FF30
:100A4000726C4788F107207E03F017023C4788F15B
:100A50001B267FC3E0100200000603C0407E0C0E80
:100A60007080C3180C3100E73007E6003C40000CF2
:100A70007C008FE019C70118303183021C7040FEE2
:100A80000407C00F007E039C0C3030C0E701F80360
:100A9000803E01CC6E19B07CC0F303CE1F9FE61ED2
:100AA0001CFFA0088C663198C6318C63086308610E
:100AB0000C208218C318C318C6318C623188C462F6
:100AC0000010235BE38D91000C0300C030FFFFF0AA
:100AD000C0300C0300C0F560FFF0F0020C1020C124
:100AE000020C1020C1020C1020C1001F07F1C730FA
:100AF0006E0F80F01E03C0780F01E03C0EC19C71A8
:100B0000FC1F0008CFFF8C6318C6318C63181F0FC1
:100B1000F987607C0600C0180701C0F0781C060049
:100B2000803007FFFFE03F0FF387606C0C0180709F
:100B30007C0F801801803C0780D873FC1F00018067
:100B4000700E03C0D81B06618C218C33067FFFFE1C
:100B50000300600C01803FCFF980300600DE1FE704
:100B60000E00E00C0180300781F873FC1F000F07B6
:100B7000F9C33074018033C7FEF0DC1F01E03C068E
:100B8000C1DC71FC1F00FFFFFC010060180200C007
:100B900030060180300401803006018030001F07DC
:100BA000F1C730660CC18C61FC3F8E3B01E03C0715
:100BB00080D831FC1F001F07F1C7706C0780F01E42
:100BC0000761EFFC79803005819873FC1E00F0000E
:100BD00003C0F0000F5600000701E0F83C0F00E0F2
:100BE00007C00F003C00F001FFFFFF000000FFFF07
:100BF000FF000E007801F007C00F00701E0F03C049
:100C0000F008001F1FEE1B03C0C0300C060381C09C
:100C1000E0300C030000000C030000FE000FFE009B
:100C2000F03E07003C380030C1E0660FD9D861C300
:100C3000C3070F1C1C3C6060F18183C6061B18387B
:100C4000EE71E718FDF871E7C0E00001E00001FF78
:100C5000C001FC0003C003C003C007E006600660DB
:100C60000E700C300C301C3818181FF83FFC301C6C
:100C7000300C700E60066006FFC7FF3019806C03F1
:100C8000601B00D80CFFC7FF300D803C01E00F0057
:100C90007806FFF7FE0007E03FF0E0738066006C27
:100CA0000030006000C001800300060006006C00F8
:100CB000DC031E0E1FF80FC0FF83FF8C07300EC031
:100CC0001B007C00F003C00F003C00F003C01F00BD
:100CD0006C03B01CFFE3FF00FFFFFFC00C00C00C63
:100CE00000C00C00FFEFFEC00C00C00C00C00C00E8
:100CF000FFFFFFFFFFFF00600C0180300600FFDFF9
:100D0000FB00600C0180300600C0180007F01FFCDB
:100D10003C1E70066003E000C000C000C07FC07FC2
:100D2000C003C00360036007300F3C1F1FFB07E1D7
:100D3000C01E00F007803C01E00F007803FFFFFFBA
:100D4000F007803C01E00F007803C01E00C0FFFFE9
:100D5000FFFFF00180C06030180C06030180C06006
:100D60003C1E0F07C77F1F00C03B01CC0E3070C375
:100D7000831C0CE03380DE03DC0E383060C1C3031B
:100D80008C06301CC03B0060C0300C0300C0300C2F
:100D90000300C0300C0300C0300C0300FFFFF0E084
:100DA00007E007F00FF00FD00FD81BD81BD81BCCD3
:100DB00033CC33CC33C663C663C663C3C3C3C3C3B8
:100DC000C3C183E01F00FC07E03D81EE0F3079C313
:100DD000C61E18F0E7833C1DE06F01F80FC03E010E
:100DE000C003E00FFC0F078600C60033001B00079E
:100DF0008003C001E000F00078003600330018C026
:100E000018783C1FFC03F800FF8FFEC06C03C03C49
:100E100003C03C07FFEFFCC00C00C00C00C00C007E
:100E2000C00C0003E00FFC0F078600C60033001B58
:100E300000078003C001E000F000780036003301B5
:100E400098C0FC783C1FFF03F9800040FFC3FFCC33
:100E500003B006C01B006C01B00CFFE3FFCC03B075
:100E600006C01B006C01B006C01B00700FE07FC302
:100E7000839C07600D8006001E003F803FC00F80EE
:100E800007C00F003E00DE0E3FF03F80FFFFFF0671
:100E90000060060060060060060060060060060054
:100EA00060060060060060C01E00F007803C01E0A4
:100EB0000F007803C01E00F007803C01E00F80EEB9
:100EC0000E3FE07C006006C01DC031806301C70397
:100ED00006060C1C1C30186031C073006600DC0173
:100EE000F001E003C00700E0301D80E0760781D804
:100EF0001E06707C18C1B0E30CC38C330C38C630AE
:100F00006718C198670661D81D83603C0D80F03E6C
:100F100003C0700F01C0180700700E6038E060E178
:100F2000C0C301CC01F801E0038007801F0033003B
:100F3000E70386060E1C0E700CC01C6006700E3097
:100F40001C38181C380C300E70066003C003C0013A
:100F5000800180018001800180018001800180FF8B
:100F6000FFFFC00E00E00E006007007007003003B6
:100F7000803803801801C01C00FFFFFFC0FFCCCCED
:100F8000CCCCCCCCCCCCCCCFF081810206040818E0
:100F9000102060408181020604FF33333333333342
:100FA0003333333FF00C0E0586C321198C83C18087
:100FB000FFFEE38C303F07F8E1CC0C00C01C3FCFB4
:100FC0008CC0CC0CE3C7EF3C70C00C00C00C00C060
:100FD0000CF8DFCF0EE07C03C03C03C03C03E06FA5
:100FE0000EDFCCF81F0FE71B83C0300C0300C038A6
:100FF000371CFE1F0000600C018030063CCFFB8FC9
:10100000E0F80F01E03C0780F83B8F3F63CC1F07FF
:10101000F1C7703C07FFFFFE00C01C0DC31FE1F0CD
:101020003BD8C67FEC6318C6318C63001E67FDC7D2
:10103000F07C0780F01E03C07C1DC79FB1E600C096
:101040003E0E7FC7E0C0300C0300C033CDFBC7E0CD
:10105000F03C0F03C0F03C0F03C0F030F03FFFFF47
:10106000F0330003333333333333333FE0C01803FB
:1010700000600C018330C630CC1B83F0770C618E8E
:1010800030E60CC1D818FFFFFFFFF0CF1F6FDFFC69
:1010900078FC183C0C1E060F03078183C0C1E0607A
:1010A000F03078183C0C18CF37EF1F83C0F03C0F9E
:1010B00003C0F03C0F03C0C01F07F1C7707C07805E
:1010C000F01E03C07C1DC71FC1F0CF8DFCF0EE06E3
:1010D000C03C03C03C03C03E07F0EFFCCF8C00C017
:1010E0000C00C0001E67FDC7F07C0780F01E03C027
:1010F0007C1DC79FF1E600C018030060CF7F38C396
:101100000C30C30C30C03E1FEE1B00C03C07F03E4D
:1011100001F03E1DFE3E006319FFB18C6318C6311D
:10112000E7C0F03C0F03C0F03C0F03C0F07E3DFB76
:101130003CC0E0660660670C30C30C3981981981A9
:10114000F00F00E00E00C1C1B0E1D870CC2C6636C3
:10115000319B18CD98646C16360F1A078F03838065
:10116000C1C060EE18C60CC1F01C0180781B0330B2
:10117000C7306606E06C0D8338630C630E60CC1BD1
:1011800003603C0700E0180300E0780E00FFFFF06A
:10119000180C070381C06030180E03FFFFC019CC84
:1011A0006318C631998618C6318C631C60FFFFFF37
:1011B000FFFFFCC718C6318C630C33318C6318C633
:1011C0007300703E09E41F03800000000009000165
:1011D0000000031A0C04E70A0009090C01E81500D5
:1011E00013181300E94E00101E1302E68A001D19A1
:1011F0001F01E8E50014191702E82401030907029A
:10120000E8280108210C03E7490108210C01E76ADD
:10121000010A0A0E02E7770110101402F197010388
:10122000090A03FD9B0108030C02F69E0103040951
:1012300003FDA0010A1A0A00E7C10110191302E810
:10124000F30108191304E80C0210191302E83E0216
:1012500011191301E8740210191301E8A6021119FB
:101260001301E8DC0210191302E80E03101913022F
:10127000E8400311191301E8760310191301E8A8D7
:101280000303130903EEB00303180903EEB90311B6
:10129000111402F0DE0311091402F4F20311111407
:1012A00002F017040F1A1303E74804201F2401E774
:1012B000C404161A1701E70C05131A1703E74A05A9
:1012C000161A1901E79205141A1803E7D305121A22
:1012D0001603E70E06111A1503E74606181A1B0136
:1012E000E79406131A1903E7D206031A0A04E7DC87
:1012F000060E1A1201E70A07141A1803E74B070F24
:101300001A1403E77C07181A1E03E7CA07141A1AEF
:1013100003E70B08191A1B01E75D08121A1703E708
:101320009808191C1B01E7F008141A1903E7310982
:10133000141A1701E77209131A1601E7B009131AF4
:101340001903E7EE09151A1701E7330A201A2100DD
:10135000E79B0A151A1701E7E00A171A1800E72B8E
:101360000B131A1601E7690B06210A02E7820B0A22
:101370001A0A00E7A30B06210A01E7BC0B0D0D10AA
:1013800002E8D20B150213FF05D80B07050901E788
:10139000DD0B11131301EE060C101A1402E73A0CC0
:1013A00010131201EE600C111A1401E7980C1013BF
:1013B0001301EEBE0C071A0A01E7D50C101B13012E
:1013C000EE0B0D0F1A1302E73C0D031A0802E74655
:1013D0000D06220900E7600D101A1202E7940D03B2
:1013E0001A0702E79E0D18131C02EED70D0F1313F8
:1013F00002EEFB0D11131301EE240E10191402EE70
:10140000560E11191401EE8C0E09130C02EEA20EE9
:101410000E131102EEC40E07170A01EAD90E0F13BC
:101420001302EEFD0E11131100EE260F1913190011
:10143000EE620F10131100EE880F111B1100EEC2A7
:101440000F0F131101EEE60F08210C01E707100240
:10145000210903E7101008210C03E731100F0712D0
:1014600001F1FFFFFFFFFFFFE9203FFCE3F1F8FC84
:101470007E3F1F8E82410001C3803870060E00C17E
:10148000803870070E0FFFF9FFFF3FFFE0E1C01C3F
:101490003803870070E00C183FFFF7FFFEFFFFC125
:1014A000C3803060060C01C3803870070E00C18015
:1014B00003000FC03FF03FF87B3CF31CE30EE30E4C
:1014C000E30EE300E300F3007B007F801FF007FCE6
:1014D000037E030F0307E307E307E307E30F733E0E
:1014E0007FFC3FF80FE003000300030000000C0046
:1014F0007800E00FF00600FFC070070E070070389C
:10150000380300C38018061C00E071C003878C00FC
:101510001FF8E0007F860001F87000000303C000A0
:10152000387F800187FE001C387000C381C00E1810
:101530000600E0C03007070380701C380380FFC03E
:101540003803FC0180078001F0007F800FFC01E17F
:10155000E01C0E01C0E01C0E01E1E00E3C007780B3
:1015600007F0007C000FE003CF1C7879C703DCE0B4
:101570001F8E00F8E00F0E0070F00F87C3FC7FFD98
:10158000C3FF0E0FC0F0FFFFFA4006060C0C181840
:10159000383070707060E0E0E0E0E0E0E0E0E060F3
:1015A000707070303818180C0C0603C0603030387A
:1015B000181C0C0E0E0E060707070707070707077C
:1015C000060E0E0E0C1C1838303060C00C0300C321
:1015D000B7FFC781E0EC7388400180018001800182
:1015E0008001800180FFFFFFFFFFFF01800180017C
:1015F000800180018001800180FFF6DAC0FFFFFFDB
:10160000FFF000C03018060180C0300C0601806079
:10161000300C0300C06018060300C03018060180BB
:10162000C0300007E00FF81FFC3C3C781E700E70C5
:101630000EE007E007E007E007E007E007E007E06B
:1016400007E007E007E00F700E700E781E3C3C1FAD
:10165000F81FF007E00303070F3FFFFF0707070727
:10166000070707070707070707070707070707E031
:101670001FF83FFC7C3E700FF00FE007E00700070B
:101680000007000F001E003C00F803F007C01F0019
:101690003C00380070006000E000FFFFFFFFFFFF2C
:1016A00007F007FE07FF8783C380F38039C01CE083
:1016B0000E0007000F007F003F001FE00078001EB3
:1016C00000070003F001F800FE00770073E0F8FF68
:1016D000F83FF807F00000380038007800F800F80C
:1016E00001F803B8033807380E381C381838383872
:1016F00070386038E038FFFFFFFFFFFF0038003828
:1017000000380038003800381FFF0FFF8FFFC70078
:10171000038001C000E000700039F03FFE1FFF8F22
:1017200083E700F0003C000E000700038001C000CA
:10173000FC00EF0073C0F0FFF83FF807E00003E0A3
:101740000FF81FFC3C1E380E700E70006000E000A9
:10175000E3E0EFF8FFFCFC3EF00EF00FE007E007DF
:10176000E0076007700F700E3C3E3FFC1FF807E07B
:10177000FFFFFFFFFFFF0006000E001C00180038EF
:101780000070006000E000C001C0018003800380A1
:101790000700070007000E000E000E000C001C00E2
:1017A0001C0007F00FFE0FFF8783C780F38039C04E
:1017B0001CE00E780F1E0F07FF01FF03FFE3E0F9A7
:1017C000C01DC00FE003F001F800FC00F70073E05B
:1017D000F8FFF83FF807F00007E01FF83FFC7C3CFB
:1017E000700EF00EE006E007E007E007E00F700F74
:1017F000783F3FFF1FF707C700070006000E700E77
:10180000701C783C3FF81FF007C0FFF00000000795
:10181000FF80FFF000000007FFB6D600008003C085
:1018200007E00FC03F807E00FC01F000E0007C007C
:101830001FC001F8003F8007F0007E000F0001800C
:10184000FFFFFFFFFFFFE0000000000003FFFFFFBE
:10185000FFFFFF80800070003E000FE000FC001FD3
:10186000C003F8003F0007800FC01F807F00FC010D
:10187000F803F001C0008000000FC07FE1FFE3C368
:10188000EF01FC01F803F007000E003800F007C07C
:101890001F007C00E003C007000E001C00000000D9
:1018A000000001C0038007000E000007F800003FA1
:1018B000FF0000FFFFC001F80FE003E001F0078028
:1018C00000F80F00003C1E00001E3C03E01E380F15
:1018D000F38E781E3F0F70381F0770780F07E07087
:1018E0000E07E0700E07E0E00E07E0E01C07E0E006
:1018F0001C0EE0E01C0EE0E0381CF070783C7078C4
:10190000FC78783FDFF0381F0FC03C0000001F005C
:1019100000000F80000007F00E0001FFFE00007FB6
:10192000FE00001FF00000F80003E0000FC0007F81
:101930000001DC000778003CE000E380038F001E1C
:101940001C00707001C1E00E0380380E00E03C07FF
:10195000FFF01FFFE0FFFF83C00E0E003C7800F198
:10196000E001C70007BC001EF0003B8000F0FFFC58
:101970001FFFE3FFFE7003CE003DC003B8007700F9
:101980000EE001DC0073801E7FFF8FFFF1FFFF3848
:1019900000F7000EE000FC001F8003F0007E000F47
:1019A000C003F800F7FFFCFFFF1FFF8000FF000FE0
:1019B000FF00FFFE07E07C3E0078F000E78003DCDC
:1019C000000770000380000E0000380000E00003F4
:1019D00080000E0000380000E0001DC0007700030A
:1019E000DE000E3C0078F803C1F81F03FFF803FF88
:1019F000C003F800FFF80FFFE0FFFF0E00F8E00360
:101A0000CE001CE000EE000EE000FE0007E0007ECD
:101A10000007E0007E0007E0007E0007E0007E0097
:101A20000FE000EE000EE001EE003CE00F8FFFF053
:101A3000FFFE0FFF80FFFFBFFFEFFFFB8000E00016
:101A400038000E00038000E00038000E0003FFFEA7
:101A5000FFFFBFFFEE00038000E00038000E000330
:101A60008000E00038000E0003FFFFFFFFFFFFF0E3
:101A7000FFFFFFFFFFFFFC000E000700038001C017
:101A800000E000700038001FFFCFFFE7FFF3800188
:101A9000C000E000700038001C000E00070003804A
:101AA00001C000E000700000007F8003FFE007FF3E
:101AB000F80F80FC1E003E3C000E78000F700007FF
:101AC000700000E00000E00000E00000E003FFE044
:101AD00003FFE003FFE00007F0000770000770005D
:101AE0000F78000F3C001F1E003F0FC0F707FFE7F5
:101AF00003FFC300FF03E000FC001F8003F0007E33
:101B0000000FC001F8003F0007E000FC001F800349
:101B1000FFFFFFFFFFFFFFF8003F0007E000FC00B2
:101B20001F8003F0007E000FC001F8003F0007E0B7
:101B300000FC001CFFFFFFFFFFFFFFFFFFFC001C7E
:101B4000007001C007001C007001C007001C00707D
:101B500001C007001C007001C007001F807E01F853
:101B600007E01FC0F7879FFE3FF03F00E001EE0057
:101B70003CE0078E00F0E01E0E03E0E07C0E0F80DC
:101B8000E1F00E1E00E3C00E7C00EFE00FCE00F887
:101B9000F00F0780E03C0E03C0E01E0E00F0E00FE7
:101BA0000E0078E003CE003CE001EE000FE001C043
:101BB000038007000E001C0038007000E001C00325
:101BC0008007000E001C0038007000E001C0038098
:101BD00007000E001C0038007FFFFFFFFFFCF8002D
:101BE0001FF8001FF8001FFC003FFC003FFC003FF7
:101BF000EE0077EE0077EE0077E700E7E700E7E733
:101C000000E7E381C7E381C7E381C7E1C387E1C39D
:101C100087E1C387E0E707E0E707E0E707E07E0743
:101C2000E07E07E07E07E03C07E03C07F0007F0035
:101C300007F8007FC007FC007FE007EF007E700719
:101C4000E7807E3C07E1C07E1E07E0E07E0F07E0F4
:101C5000787E0387E03C7E01E7E00E7E00F7E00738
:101C6000FE003FE003FE001FE001FE000F007F00CA
:101C700001FFF001FFFC01F01F01E003C1E000F1F2
:101C8000E0003CE0000E700007700003F80000FC6C
:101C900000007E00003F00001F80000FC00007E032
:101CA0000003B800039C0001CF0001E3C001E0F095
:101CB00001E03E03E00FFFE003FFE0003F8000FF94
:101CC000FC3FFF8FFFF3803EE003F8007E001F80A3
:101CD00007E001F8007E003F801EFFFF3FFF8FFFFF
:101CE000C38000E00038000E00038000E0003800F0
:101CF0000E00038000E000380000007F0001FFF0CC
:101D000001FFFC01F01F01E003C1E000F1E0003C35
:101D1000E0000E700007700001F80000FC00007E7B
:101D200000003F00001F80000FC00007E00007B860
:101D300000039C0001CF0039E3C01FE0F007E03E44
:101D400003F00FFFFC03FFEE003F83800000C000A4
:101D50000020FFFE0FFFF8FFFFCE003CE001EE0089
:101D60000EE000EE000EE000EE000EE001CE003CC2
:101D7000FFFF8FFFF0FFFF8E003CE001EE000EE062
:101D800000EE000EE000EE000EE000EE000EE000BF
:101D9000FE000F03FC00FFF01FFF83E07C3801E72B
:101DA000000E7000E7000070000780003E0001FE9A
:101DB000000FFE003FF8003FE0003E0000F000078B
:101DC000E0007E0007F00077800E7C03E3FFFC1F3D
:101DD000FF803FC0FFFFFFFFFFFFFF8070000E008E
:101DE00001C0003800070000E0001C000380007004
:101DF000000E0001C0003800070000E0001C0003D6
:101E0000800070000E0001C0003800070000E000F4
:101E10001C00E000FC001F8003F0007E000FC001EA
:101E2000F8003F0007E000FC001F8003F0007E0088
:101E30000FC001F8003F0007E000FC001F8003F026
:101E4000007F001EF0079F01F1FFFC1FFE007F00D6
:101E5000E0007F8003FC001CE001E7800F3C007085
:101E6000E00787803C1C01C0E00E0780E01C0700F3
:101E7000E0380783801C1C00E0E0078E001C700027
:101E8000E38007B8001DC000EE0007E0001F00005F
:101E9000F8000380007003C00F7003C00F7803E0E8
:101EA0000F7803E00E3807E00E3807F01E3C07708D
:101EB0001E3C07701C1C0E701C1C0E383C1C0E387F
:101EC0003C1E1E38380E1C38380E1C1C380E1C1CCC
:101ED000780F3C1C7007380E7007380E7007380EEC
:101EE0007007700EE003F007E003F007E003F0076F
:101EF000E003E003C001E003C001E003C0F0007BA9
:101F0000C0078F00387803C1E03C0781C03C1E0049
:101F1000F1E0038E001EF0007F0001F0000F800052
:101F20007C0007F0003B8003DE003C7801C1C01E4E
:101F30000F01E03C0E00E0F0078F001E7000F780FC
:101F400003C0F0003CF00078F001E1E00381E00F15
:101F500001C01C03C07803C1E0078380078F00071E
:101F60001C000F78000EE0000F80001F00001C0016
:101F700000380000700000E00001C000038000078E
:101F800000000E00001C000038000070007FFFEF12
:101F9000FFFDFFFF8000F0003C000F8001E00078B3
:101FA000001E00078000F0003C000F0003C0007816
:101FB000001E00078001E0007C000F0003C000F05D
:101FC000003E0007FFFFFFFFFFFFFCFFFFF8E38E6F
:101FD00038E38E38E38E38E38E38E38E38E38E387C
:101FE000E38FFFFCC030060180600C0300C01806C0
:101FF0000180200C03004018060180300C030060B3
:10200000180600C030FFFFC71C71C71C71C71C71C8
:10201000C71C71C71C71C71C71C71C7FFFFC070060
:102020007803C03F01D80CE0E3061C70E383181D61
:10203000C06C0380FFFFFFFFFFC0F0F0E0E0E007AF
:10204000F00FFC0FFF0F03C700E000700038001C0A
:1020500000FE0FFF1FF39F01CF00E700738079E0C0
:10206000FC7FEF9FE3C7E1E0E000E000E000E0007C
:10207000E000E000E000E3E0EFF8FFFCFC3EF81ECB
:10208000F00EE00FE007E007E007E007E007E007F9
:10209000F00EF81EFC3CEFFCEFF8E3E007F01FF851
:1020A0003FFC3C1E780E7007E000E000E000E0001E
:1020B000E000E000E0077007780E7C1E3FFC1FF890
:1020C00007E000038001C000E000700038001C0041
:1020D0000E0FC71FFB9FFFDF07EF01F7007F803F59
:1020E000800FC007E003F001F800FC0077007BC020
:1020F0007DF07E7FFB1FF983F0C007E01FF83FFCF7
:102100007C1E700E6006E007FFFFFFFFFFFFE00090
:10211000E000E0007007780E3C1E3FFC1FF807E06F
:102120000E3CF9C3870E7FFFFCE1C3870E1C38709D
:10213000E1C3870E1C387007C71FF73FFF3C3F788D
:102140000F700FE007E007E007E007E007E007E0B7
:1021500007700F780F7C3F3FF71FE707C7000700A6
:1021600007000E700E781E3FFC1FF807E0E001C06C
:10217000038007000E001C00380071F8E7FDDFFB4C
:10218000F0FFC0FF00FC01F803F007E00FC01F8064
:102190003F007E00FC01F803F007E00FC01CFFF0D9
:1021A00007FFFFFFFFFFFFFC1C71C70000071C714A
:1021B000C71C71C71C71C71C71C71C71C71C73FF7A
:1021C000FBC0E000E000E000E000E000E000E00034
:1021D000E03CE078E0F0E1E0E3C0E780EF00EF8092
:1021E000FF80FBC0F1E0E0E0E0F0E070E078E03C90
:1021F000E01CE01EE00EFFFFFFFFFFFFFFFFFFFC04
:10220000E3E0F8E7F1FEEFFBFEF87F0FF03E07F0AA
:102210001C07E01C07E01C07E01C07E01C07E01C93
:1022200007E01C07E01C07E01C07E01C07E01C0798
:10223000E01C07E01C07E01C07E3F1CFFBBFF7E160
:10224000FF81FE01F803F007E00FC01F803F007E12
:1022500000FC01F803F007E00FC01F803807F00F03
:10226000FE0FFF8783C780F3803B801FC007E0031A
:10227000F001F800FC007E003B8039E03C783C3FF8
:10228000FE0FFE01FC00E3E0E7F8EFFCFC3EF81E69
:10229000F00EE00FE007E007E007E007E007E007E7
:1022A000F00EF81EFC3EFFFCEFF8E3E0E000E0007B
:1022B000E000E000E000E00007E18FFCCFFF678373
:1022C000F780FB803FC01FC007E003F001F800FC6F
:1022D000007E003B803DE03EF83F3FFF8FFDC1F8B0
:1022E000E000700038001C000E0007000380E3F7D8
:1022F000FBFF8F078381C0E070381C0E070381C08D
:10230000E07038000FC0FF87FF3C1EE03B800E00EE
:102310003C007F00FF80FF807F003F807E01FC1F2C
:102320007FF8FFC1FC003870E1CFFFFF9C3870E1FF
:10233000C3870E1C3870E1C3E7C780E00FC01F8061
:102340003F007E00FC01F803F007E00FC01F803F54
:10235000007E00FC03FC0FFC3F7FEEFF9C7E38708C
:1023600003B8039C01C700E380E1C07070383838BF
:102370001C1C070E038E01C70077003B801DC007A1
:10238000C003E001F0007000F01C03B81F03DC0F75
:1023900081CE07C0E783E071C3B870E1DC3870EE2E
:1023A0001C1C630E0E71CE0738E7039C7380EC197A
:1023B000807E0FC03F07E00F83F00780F003C078F6
:1023C00001E03C007007380E3C1C1C1C0E380F70DE
:1023D000077003E003C001C003E007E007700E7858
:1023E0001E381C1C381E780E7007700738039C01BD
:1023F000C701C380E1C070707038381C3C071C03F3
:102400008E01CE0077003B801F8007C003E001E013
:10241000007000380038001C001E000E003F001F36
:10242000000F00007FFCFFF9FFF000E003800E00CA
:102430003C00F003C00F001C007001E007801E008C
:102440007800FFFFFFFFFFF8070F1F1C1C1C1C1C60
:102450001C1C1C1C1C1C38F8E0F8381C1C1C1C1C08
:102460001C1C1C1C1C1C1F0F07FFFFFFFFFFFFFF96
:10247000FFC0E0F0F838383838383838383838386D
:102480001C1F071F1C383838383838383838383867
:10249000F8F0E03800FC03FC1F3E3C1FE01F801EEC
:1024A00000000000000C0001000004221006DF11F3
:1024B000000B0C1002E0220018211A01E185001720
:1024C000291A01DEFB0027222A01E0A1011C221F9C
:1024D00002E01802040C0902E01E020A2C1003DFBD
:1024E00055020A2C1002DF8C020E0E1202DFA5022A
:1024F00017161B02EBE502040C0D04FCEB020B04A7
:102500001002F2F10204050C04FCF4020D230D008C
:10251000DF2D0316221A02E08B030B211A05E0B906
:102520000316211A02E0140417221A01E076041798
:10253000211A01E0D50416221A02E0330516221AE8
:1025400002E0910515211A02E0E80516221A02E0C0
:10255000460615221A02E0A00604190C04E8AD068E
:1025600004200C04E8BD0617171B02EA0007170C2D
:102570001B02F0230717171B02EA660714231A042D
:10258000DEBE072B2A3002DEA0081E221F01DF203C
:102590000919221F04DF8B091D242102DE0E0A1BEC
:1025A000222104DF810A18221E04DFE70A16221CFA
:1025B00004DF450B1F242402DED10B1A222204DF84
:1025C000400C04220D05DF510C13231902DFA50C6A
:1025D0001B222004DF180D15221A04DF720D2022A1
:1025E0002804DFFA0D1A222204DF690E21242502B5
:1025F000DEFE0E18221F04DF640F21262502DE01F5
:10260000101A222104DF70101B241F02DEEA101AA8
:10261000221E02DF59111A232204DFCB111D221EB4
:1026200001DF47122A222C01DFFA121D221F01DFCF
:1026300076131E222001DFF6131B221D01DF691411
:10264000082C0D03DF95140D230D00DFCE14082C8C
:102650000D01DFFA1412121602E023151C021AFFF4
:10266000072A150A070C01DE3315181B1A01E78427
:102670001516231A03DFE515151B1801E72C16178D
:10268000231A01DF9116161B1901E7DC160A220D29
:1026900001DF071716241A01E76A1713221903DF4F
:1026A000BB1704220A03DFCC17082C0B00DFF81736
:1026B00015221803DF521804220A03DF6318201AB8
:1026C0002603E7CB18141A1903E70C19171B190175
:1026D000E75A1916231A03E7BB1917231A01E72033
:1026E0001A0C1A1003E7471A141B1701E78B1A0A72
:1026F000200D01E2B31A141A1903E8F41A17191776
:1027000000E83C1B22192200E8A71B16191600E856
:10271000EC1B16231600E84D1C14191701E88C1C3D
:102720000B2C1002DFC91C032C0C04DFDA1C0B2C51
:102730001002DF171D13071802EDFFFFFFFFFFFF59
:10274000FFFFFFFF766666000FFFFFF1FE3FC7F851
:10275000FF1FE3FC7F8FF1EC1983306000703C00B9
:10276000703C00F03800F03800F07800E07800E0CD
:102770007801E07001E0707FFFFF7FFFFF7FFFFFC8
:1027800003C0E003C0E003C0E00381E00381E00395
:1027900081E00781C00781C0FFFFFEFFFFFEFFFF52
:1027A000FE0F03800F03800F07800E07800E078047
:1027B0001E07001E07001E07001C0F001C0F000054
:1027C000380001FC001FFE007FFE01FFFE07E73E10
:1027D0000F8E3C3E1C3C783838F07071E0E0E3C16D
:1027E000C00783800F87000F8E001FDC001FF800DA
:1027F0001FFF000FFF8007FF8003FF80071F800E71
:102800001F001C1F00381FC0703F80E07F81C0FF89
:102810000381EF07079F0E0F3E1C3E3F39F83FFF35
:10282000E03FFF000FF8000380000700000E0000EB
:102830001C000038000000001C000FC00078003FA2
:10284000E000E001FFE0038003FFE007000F87C026
:102850001C003C03C03800700380E000E00703C0A8
:1028600001C00E070003801C1E0007807838000797
:10287000C3E0F00007FFC1C0000FFF0780000FFC9E
:102880000E000007E038000000007000000001C0EA
:102890003F00000380FF80000E07FF80003C0FFF19
:1028A0008000703E1F0001E0F00F000381C00E00A9
:1028B0000F03801C001C07003800780E007000E039
:1028C0001E01E003801F0F8007001FFF001C003F58
:1028D000FC0038001FF000E0001F80007E00001F99
:1028E000F00003FF80007FFC0007C3C000F81E005B
:1028F0000F00E000F00E000F00E000F00E00078176
:10290000E0007C3C0003EF80001FF00001FE0000AF
:102910001F800003FC0000FFE0001F1E0783E0F0A3
:10292000787C0F8F87807CF0F003FF0F001FE0F0B2
:1029300000FE0F000FC0F0007E0F800FF07C01FF43
:1029400007F07DF83FFF8FC1FFF07E0FFE03E03FF1
:102950008000FFFFFFFFF66601C070381C0703C050
:10296000E0781C0703C0E0781E0781E0703C0F038D
:10297000C0F03C0F03C0F03C0F03C0701E0781E0A5
:10298000380F03C0701E0380E01C0700E01807E04A
:10299000380701C0380F01C0780E0380F01C070112
:1029A000E0781E0380F03C0F03C0F03C0F03C0F042
:1029B0003C0F0781E0781E0703C0F0381E0701C0F6
:1029C000E0381C06038003000C003000C0631BFFCE
:1029D000FFFFC3F007803F01CE073C3870210000A5
:1029E000380000700000E00001C000038000070014
:1029F000000E00001C00003801FFFFFFFFFFFFFF7B
:102A0000FFFFFFFFE00700000E00001C0000380081
:102A100000700000E00001C000038000070000FF1C
:102A2000FFF33336ECFFFFFFFFFFF0FFFFF000384E
:102A300001C00C00E007003003801C00C0060070DD
:102A400003801801C00E006003003801800C00E014
:102A500007003003801C00C006007003801801C00E
:102A60000E00600700380000FC000FFC00FFFC07B0
:102A7000FFF81F87E0F807C3C00F1F003E780079FA
:102A8000E001E78007BC000FF0003FC000FF00033B
:102A9000FC000FF0003FC000FF0003FC000FF0003F
:102AA0003FC000FF0003DE001E780079E001E7C0B0
:102AB0000F8F003C3E01F07C1F81FFFE03FFF003FF
:102AC000FF0003F00000601C0380F03E3FFFFFFFAB
:102AD000FFE03C0780F01E03C0780F01E03C078058
:102AE000F01E03C0780F01E03C0780F01E03C078A1
:102AF0000F01E001FE001FFE01FFFE0FFFFC3F0380
:102B0000F9F003E78007FE001FF0003FC000FF0060
:102B100003C0000F00007C0001F0000F80007C006B
:102B200007F0007F8007F8003FC003FC001FC000D3
:102B3000FC0007C0003E0000E0000780001C000011
:102B4000700003FFFFFFFFFFFFFFFFFFFFFC00FE22
:102B5000000FFF803FFF80FFFF83F01F87C01F1F14
:102B6000001F3C001E78003CF000780000F00001DF
:102B7000E0000780007F001FFC003FE0007FE000D6
:102B8000FFF00007F00003E00003E00003C00007CF
:102B900080000FF0001FE0003FE000FBC001E7C035
:102BA00007C7E03F0FFFFE0FFFF807FFC003FC0061
:102BB0000001C0000780001F00007E0000FC000331
:102BC000F8000FF0003FE0007BC001E780078F00B6
:102BD0000F1E003C3C00F07803C0F00781E01E03AC
:102BE000C0780781E00F03C01E0F003C1FFFFFFFEE
:102BF000FFFFFFFFFFFFFFFE000780000F00001E2A
:102C000000003C0000780000F00001E00003C01F5D
:102C1000FFF07FFFC1FFFF07FFFC3C0000F0000357
:102C2000C0000F00003C0000F00003C0001F3F8008
:102C30007BFF81FFFF07FFFE1F80FC7801F8000388
:102C4000E00007C0000F00003C0000F00003C000DF
:102C50000F00003FC000FF80079E001E7C00F1FCBB
:102C60000FC3FFFE07FFF00FFF8007F00000FE001C
:102C70000FFE007FFC03FFF81F83F0F807C3C00FAF
:102C80008F001E780079E0000700003C0000F0FE95
:102C900003CFFE0F7FFE3FFFFCFF03F3F003EF8047
:102CA00007BE001FF0003FC000FF0003FC000F70D4
:102CB000003DC000F780079F003E3E00F8FC0FC1BA
:102CC000FFFE03FFF007FF8007F800FFFFFFFFFF95
:102CD000FFFFFFFFFFF000070000780007800038CB
:102CE0000003C0003C0001C0001E0000E0000F0017
:102CF000007000078000380003C0001C0001E000E5
:102D00000E0000F000078000380003C0001E000025
:102D1000E0000F0000780003C0001C0001E0000F7D
:102D2000000001FE001FFE00FFFC07FFF83F03F15B
:102D3000F003C7C00F9E001E780079E001E7800F06
:102D40008F003C3F03F07FFF807FF803FFF01FFF01
:102D5000E0FC0FC7C00F9E001EF8007FC000FF0000
:102D600003FC000FF0003FC000FF8007DE001E7C68
:102D700000F8FC0FC3FFFF07FFF807FF8007F8000C
:102D800001FC003FF803FFE03FFF83F07E3E00F1CF
:102D9000E007CF001EF000778003BC001FE000FFBB
:102DA0000007F8003FE003EF001F7C01F9F83FCF78
:102DB000FFFE3FFEF0FFE780FC3C0001E0000E005C
:102DC00000F000079E003CF003C7C03E1F03E0FF79
:102DD000FE03FFE00FFE001FC000FFFFF000000039
:102DE00000000000FFFFF0FFFFF000000000000007
:102DF00000FFFFF33336EC00000000001C0000F879
:102E00000007F0007FC003FC003FE001FF000FF06F
:102E100000FF8003F80007C0000FE0000FF000077C
:102E2000FC0003FE0000FF00007FC0003FE0000F39
:102E3000F00007E00001C0000080FFFFFFFFFFFF80
:102E4000FFFFFFFFFFF00000000000000000000097
:102E500000FFFFFFFFFFFFFFFFFFFFFFF08000010C
:102E6000C00003F00007F80003FC0001FF0000FFB2
:102E700080003FC0001FF00007F80003F80001F0D9
:102E80000007E0003FC003FC001FE001FF000FF05F
:102E900000FF8007FC000FC0001E00003000000093
:102EA00003F800FFF01FFF83FFFC7E0FE7803E78F2
:102EB00001FF000FF000FF000FF000F0001F000105
:102EC000E0003E0007C000F8003F0007E0007C0083
:102ED0000F8001F0001E0001E0001E0001E0001E56
:102EE000000000000000000000000001E0001E00E3
:102EF00001E0001E0001E00000003FE00000007F54
:102F0000FFC000003FFFFE00000FFFFFF00007FCC6
:102F100003FF0001FC000FF0007E00007F001F0097
:102F20000003F007C000003F01F0000003F03C0088
:102F30007E003E0F003FE3C3E3E01FFE783C7807CE
:102F4000E1FF07DF01F01FC0FBC07C01F80F780F25
:102F5000003F01EF03C007C03FC07800F807F80F3B
:102F6000001F00FF03C003C01FE078007807FC0FBC
:102F7000001F00F781E003C01EF03C0078079E07A9
:102F8000801F01F3E0F807C03C3C0F81F80F8781F8
:102F9000F87F87E0F81FFEFFF80F01FF1FFC01F02C
:102FA0000F80FE001F0000000003F0000000003F43
:102FB0000000000003F8000000003F800000000354
:102FC000FE007C00001FFFFF800001FFFFF80000F3
:102FD0000FFFFC0000001FF80000000FC000007F82
:102FE000000001FC000007F800003FE00000F7C00F
:102FF0000003DF00001F3C000078F80001E3E00060
:103000000F8780003C1F0001F07C000780F0001E4D
:1030100003E000F80F8003C01E000F007C007C015D
:10302000F001E003C007FFFF803FFFFE00FFFFFC51
:1030300007FFFFF01F0007C078000F83E0003E0F7E
:103040008000F83C0001F1F00007C7C0001F1E001F
:10305000003EF80000FBE00001E0FFFF807FFFF092
:103060003FFFFE1FFFFF0F000FC78001E3C000F905
:10307000E0003CF0001E78000F3C00079E00078F28
:103080000003C78007C3FFFFC1FFFFC0FFFFF87F3A
:10309000FFFE3C000F9E0003EF0000F780003FC0E2
:1030A000001FE0000FF00007F80003FC0001FE0025
:1030B00001FF0001F78001FBFFFFF9FFFFF8FFFFB1
:1030C000F87FFFF000001FE00007FFE0007FFFC077
:1030D0000FFFFF00FE01F807C003E07C000F87C070
:1030E000003C3C0001E3E000079E00003CF00000D3
:1030F0000780000078000003C000001E000000F000
:103100000000078000003C000001E000000F00000C
:103110000078000003C000000F00000F7800007B63
:10312000C00007DF00003C780001E3E0001F0F80D3
:1031300001F03E001F81FE03F807FFFF800FFFF83C
:10314000003FFF00003FC000FFFF801FFFFE03FFA6
:10315000FFE07FFFFE0F000FE1E0007E3C0007E78D
:1031600080007CF00007DE00007BC0000F780001CB
:10317000EF00001FE00003FC00007F80000FF00064
:1031800001FE00003FC00007F80000FF00001FE044
:103190000003FC0000F780001EF00003DE0000FBCF
:1031A000C0003E78000FCF0003F1E001FC3FFFFFBD
:1031B00007FFFFC0FFFFF01FFFF000FFFFFEFFFF54
:1031C000FEFFFFFEFFFFFEF00000F00000F0000039
:1031D000F00000F00000F00000F00000F00000F04F
:1031E0000000F00000F00000FFFFFEFFFFFEFFFF09
:1031F000FEFFFFFEF00000F00000F00000F0000015
:10320000F00000F00000F00000F00000F00000F01E
:103210000000F00000FFFFFFFFFFFFFFFFFFFFFFC9
:10322000FFFFFFFFFFFFFFFFFFFFFFFFF00003C0F7
:10323000000F00003C0000F00003C0000F00003C45
:103240000000F00003C0000F00003FFFFCFFFFF391
:10325000FFFFCFFFFF3C0000F00003C0000F0000A5
:103260003C0000F00003C0000F00003C0000F00034
:1032700003C0000F00003C0000F00003C00000008D
:103280000FF80000FFFE0007FFFF001FFFFF007F99
:10329000807F01F8003F07E0001F0F80001E3E0006
:1032A000003E7800003DF0000003C00000078000F1
:1032B000001F0000003C00000078000000F000004B
:1032C00001E000FFFFC001FFFF8003FFFF0007FFD9
:1032D000FE000003FE000007BC00000F7800001E87
:1032E000F800007DF00000F9F00003F3F00007E3C0
:1032F000F0001FC3F000FF83FC07EF03FFFF9E03F6
:10330000FFFE1C01FFF038007F8000F00003FC008E
:1033100000FF00003FC0000FF00003FC0000FF00B2
:10332000003FC0000FF00003FC0000FF00003FC0A2
:10333000000FF00003FC0000FF00003FFFFFFFFF55
:10334000FFFFFFFFFFFFFFFFFFC0000FF00003FCC8
:103350000000FF00003FC0000FF00003FC0000FF72
:1033600000003FC0000FF00003FC0000FF00003F22
:10337000C0000FF00003FC0000F0FFFFFFFFFFFFA5
:10338000FFFFFFFFFFFFFFFFFFFFFF0001E0003C2B
:1033900000078000F0001E0003C00078000F00014D
:1033A000E0003C00078000F0001E0003C000780031
:1033B0000F0001E0003C00078000F0001E0003C089
:1033C000007F800FF001FE003FC007F801FF803E44
:1033D000F00F9F83F1FFFC3FFF01FFC00FE000F003
:1033E0000007DE0001F3C0007C78001F0F0007C15A
:1033F000E001F03C007C07801F00F007C01E01F0D8
:1034000003C07C00781F000F07C001E1F0003C7E84
:1034100000079FE000F7FE001FF7C003FC7C007F61
:1034200007C00FC0F801F00F803C00F807801F8034
:10343000F001F01E001F03C003F078003E0F0003F0
:10344000E1E0003E3C0007C780007CF00007DE00A2
:1034500000FCF0000780003C0001E0000F00007855
:103460000003C0001E0000F0000780003C0001E0E7
:10347000000F0000780003C0001E0000F00007806D
:10348000003C0001E0000F0000780003C0001E00B7
:1034900000F0000780003C0001E0000F0000780011
:1034A00003FFFFFFFFFFFFFFFFFFFFC0FC00003F28
:1034B000FC00003FFE00007FFE00007FFE00007F5A
:1034C000FF0000FFFF0000FFF70000EFF78001EFB3
:1034D000F78001EFF3C001CFF3C003CFF3C003CFF8
:1034E000F1E0038FF1E0078FF1E0078FF0F00F0FAD
:1034F000F0F00F0FF0F00F0FF0781E0FF0781E0FA6
:10350000F0781E0FF03C3C0FF03C3C0FF03C3C0FC1
:10351000F01E780FF01E780FF00E780FF00FF00FFE
:10352000F00FF00FF007F00FF007E00FF007E00FDB
:10353000F003E00FF80003FF0000FFC0003FF800B9
:103540000FFE0003FFC000FFF8003FDE000FF7C0D2
:1035500003FCF800FF1E003FC7C00FF0F003FC3E65
:1035600000FF07C03FC0F00FF03E03FC07C0FF00A4
:10357000F03FC03E0FF00783FC01F0FF003E3FC06C
:10358000078FF001F3FC003EFF0007BFC001FFF012
:10359000003FFC000FFF0001FFC0003FF0000FFCE8
:1035A0000001F0000FF800003FFF80007FFFF000F7
:1035B0007FFFFC007F80FF007E000FC07E0003F0D5
:1035C0003E0000F83E00003E1E00000F1F000007F6
:1035D000CF000001E7800000F7C000007FC00000BE
:1035E0001FE000000FF0000007F8000003FC0000DF
:1035F00001FE000000FF0000007F8000003FC000CF
:10360000003EF000001E7800000F3E00000F8F000B
:10361000000787C00007C1F00007C0FC0007E03FBB
:103620000007E00FF01FE003FFFFE000FFFFE000F6
:103630001FFFC00001FF0000FFFF80FFFFF0FFFF42
:10364000F8FFFFFCF000FEF0003EF0001FF0000F5E
:10365000F0000FF0000FF0000FF0000FF0000FF07F
:10366000001FF0003EF000FEFFFFFCFFFFF8FFFF31
:10367000F0FFFFC0F00000F00000F00000F00000DC
:10368000F00000F00000F00000F00000F00000F09A
:103690000000F00000F00000F00000F00000000F5B
:1036A000F800003FFF80007FFFE0007FFFFC007F0D
:1036B00080FF007E000FC07E0003F03E0000F83E59
:1036C00000003E1E00000F1F000007CF000001E7B2
:1036D000800000F7C000007FC000001FE000000F66
:1036E000F0000007F8000003FC000001FE000000ED
:1036F000FF0000007F8000003FC000003EF000009F
:103700001E7800000F3E00000F8F00038787C00364
:10371000E7C1F000FFC0FC003FE03F000FE00FF00A
:103720001FF003FFFFFC00FFFFFF001FFFC7C001EA
:10373000FF01E00000007000000010FFFFE03FFF0D
:10374000FE0FFFFFC3FFFFF8F0003F3C0007CF0074
:1037500000FBC0001EF00007BC0001EF00007BC0B2
:10376000001EF00007BC0003CF0001F3C000F8FF0B
:10377000FFFC3FFFFE0FFFFFC3FFFFF8F0003F3CE1
:103780000003CF0000FBC0001EF00007BC0001EFEB
:1037900000007BC0001EF00007BC0001EF00007BB2
:1037A000C0001EF00007FC0001F0007FC0007FFF9A
:1037B000001FFFF00FFFFF81F807F07C001F0F00D4
:1037C00001E3E0003E780003CF000079E000003C18
:1037D000000007C000007E00000FF00000FFE000C6
:1037E0000FFFC0007FFF0001FFF80003FF8000070C
:1037F000F800003F800001F000001F000001FE0003
:10380000003FC00007F80000F780003EF800079F67
:103810008001F1FE01FC1FFFFF01FFFFC00FFFE071
:10382000003FE000FFFFFFFFFFFFFFFFFFFFFFFF85
:10383000FF001E000007800001E000007800001E6D
:10384000000007800001E000007800001E00000773
:10385000800001E000007800001E000007800001E9
:10386000E000007800001E000007800001E000007A
:103870007800001E000007800001E00000780000D2
:103880001E000007800001E000007800001E00001C
:10389000078000F00003FC0000FF00003FC0000FA5
:1038A000F00003FC0000FF00003FC0000FF0000329
:1038B000FC0000FF00003FC0000FF00003FC000010
:1038C000FF00003FC0000FF00003FC0000FF0000FD
:1038D0003FC0000FF00003FC0000FF00003FC000ED
:1038E0000FF00003FC0000FF00007DE0001E7C00E4
:1038F0000F9F8007E3F807F07FFFF80FFFFC00FF42
:10390000FC000FF800F80000F7C0000F9E00007CDC
:10391000F80003C7C0003E1E0001F0F8000F07C00A
:1039200000F81E0007C0F8003C07C003E01E001F9F
:1039300000F800F003C00F801E007C00F803C003F5
:10394000C01E001F01F000F80F0003C078001F0721
:103950008000F83C0003C1E0001F1E000078F0006A
:1039600003C780001F7800007BC00003DE00001F3B
:10397000E000007F000003F800001F8000007C00D2
:1039800000F8003F0007FE000FC001FF8003F000B9
:103990007DE000FC001E7C007F800F9F001FE00385
:1039A000E7C007F800F8F001FF003C3E00F3C01F3D
:1039B0000F803CF007C3E00F3C01F07807C7807828
:1039C0001F01E1E01E07C078780F80F01E1E03E0A3
:1039D0003C0F83C0F00F83C0F03C03E0F03C1F00BD
:1039E000783C0F87C01E1E01E1E0078780787801D0
:1039F000F1E01E1E003CF803CF800F3C00F3C00333
:103A0000CF003CF000FBC00FBC001FF001FF00071F
:103A1000F8007F8001FE001FE0007F8003F8000FA8
:103A2000C000FE0003F0003F0000FC000FC0003F9C
:103A30000001F0007C0001F3F0001F8F8000F83ED1
:103A4000000F80F800F807C007C01F007C007C074B
:103A5000C003E03E000F83E0003E3E0001F1F000B5
:103A600007DF00001FF00000FF800003F800000FD8
:103A7000800000FE00000FF000007FC00007DF00A4
:103A8000007C780003E3E0003E0F8003E03E001F6F
:103A900001F001F007C01F003F00F800F80F80039D
:103AA000E0F8001F8FC0007C7C0001F7C0000FC051
:103AB000FC0000FDF00003E7E0001F0F80007C1F0A
:103AC0000003E07C001F00F8007C01F003E007C069
:103AD0000F800F807C001E01E0007C0F8000F87CCE
:103AE0000003E1E00007CF80000F3C00003FF00042
:103AF000007F800000FC000003F000000780000051
:103B00001E00000078000001E00000078000001E99
:103B100000000078000001E00000078000001E00A7
:103B2000000078000001E00000078000001E000097
:103B30003FFFFFC7FFFFF8FFFFFF1FFFFFE0000091
:103B40007C00001F000007E00001F800007E00007C
:103B50000F800003E00000FC00003F00000FC000E9
:103B600001F000007C00001F800007E00001F80069
:103B7000003E00000F800003F00000FC00001F006A
:103B80000007C00001F000007E00001F800003E07D
:103B90000000F800003FFFFFFFFFFFFFFFFFFFFFF8
:103BA000FFFFFCFFFFFFFFF0F0F0F0F0F0F0F0F0AF
:103BB000F0F0F0F0F0F0F0F0F0F0F0F0F0F0F0F005
:103BC000F0F0F0F0F0F0F0F0F0F0F0FFFFFFFFE0C9
:103BD00007001800E007001800E007001800C00701
:103BE000003800C007003800C006003800C00600DA
:103BF0003801C006003801C006003001C00E003098
:103C000001C00E003001C00EFFFFFFFF0F0F0F0FAE
:103C10000F0F0F0F0F0F0F0F0F0F0F0F0F0F0F0FB4
:103C20000F0F0F0F0F0F0F0F0F0F0F0F0F0F0F0FA4
:103C3000FFFFFFFF01E00078003F000FC007F80121
:103C4000CE0073803C700E1C078781C0E07038384E
:103C5000070E01C78079C00E7003B80070FFFFFF28
:103C6000FFFFFFFFFC0F01E03C0700E01C01FF002D
:103C70000FFFC01FFFE03FFFF07E03F87C00F878E5
:103C800000780000780000780000780000F8000359
:103C9000F800FFF80FFFF83FFE787F8078FC00788F
:103CA000F80078F00078F000F8F000F8F803F87EFB
:103CB0000FF87FFF7F3FFE3F1FFC3F07E01FF00034
:103CC00003C0000F00003C0000F00003C0000F0024
:103CD000003C0000F07E03C7FE0F7FFC3DFFF8FFB5
:103CE00007F3F807CFC00FBE001EF8007BE001FF0E
:103CF0000003FC000FF0003FC000FF0003FC000FBA
:103D0000F0003FC001FF8007BE001EFC00FBF8076B
:103D1000CFF07F3BFFF8E7FFC38FFE000FE000000E
:103D2000FE003FFC03FFF03FFFC3F03F1F00F9F030
:103D300003CF000F780007C0003C0001E0000F0037
:103D400000780003C0001E0000F0000780001E0085
:103D50001EF000F7C00F9F00F8FC0FC3FFFC0FFF21
:103D6000C03FFC007F0000001E00003C0000780007
:103D700000F00001E00003C0000780000F01FC1EFE
:103D80000FFE3C3FFF78FFFFF3F83FE7C01FDF0067
:103D90001FBE001F78003FF0007FC0007F8000FF43
:103DA0000001FE0003FC0007F8000FF0001FF00008
:103DB0007DE000FBC001F7C007E7C01FCFE0FF8F29
:103DC000FFF70FFFCE0FFF1C07F80000FE000FFEED
:103DD00000FFFC07FFF81F83F0F807C7C00F9E0025
:103DE0001E78007BC000FF0003FC000FFFFFFFFFF9
:103DF000FFFFFFFFFC0000F00003C0000780001E73
:103E0000001E7C0078F803E3F03F07FFF80FFFE0A7
:103E10001FFE000FE00003C3F0FC7F1F0781E07866
:103E20001E3FFFFFFF1E0781E0781E0781E0781E1E
:103E30000781E0781E0781E0781E0781E0781E0781
:103E40008000FC001FF8F0FFFBC7FFFF3F83FCF87A
:103E500007F7C00FDE001F78007FE000FF0003FCC3
:103E6000000FF0003FC000FF0003FC000FF0003F18
:103E7000C000F78007DE001F7C00FCF807F3F83F66
:103E8000C7FFEF0FFF3C1FF8F01F83C0000F0000BB
:103E900079E001E7C00F8F80FC3FFFF07FFF80FFDC
:103EA000FC007F80F0001E0003C00078000F0001BE
:103EB000E0003C00078000F0FE1E3FE3CFFF7BFFE9
:103EC000EFF0FFF807FF007FC00FF801FE003FC0D2
:103ED00007F800FF001FE003FC007F800FF001FEE9
:103EE000003FC007F800FF001FE003FC007F800FC9
:103EF000F001FE003CFFFFF0000FFFFFFFFFFFFFA0
:103F0000FFFFFFFFFFFF0F0F0F0F0F000000000F5D
:103F10000F0F0F0F0F0F0F0F0F0F0F0F0F0F0F0FB1
:103F20000F0F0F0F0F0F0F0F0F0F0F0F0F1FFFFEB2
:103F3000FEF8F0000780003C0001E0000F00007870
:103F40000003C0001E0000F00007801F3C01F1E0EC
:103F50001F0F01F0781F03C1F01E1F00F1F0079F33
:103F6000003DF801FFE00FFF807F7C03F1F01F07A9
:103F7000C0F03E0780F83C03C1E01F0F007C7803CF
:103F8000E3C00F9E003CF001F78007C0FFFFFFFF7A
:103F9000FFFFFFFFFFFFFFFFFFFFFFFFFF00FC032F
:103FA000F0E3FE0FFCE7FF1FFEEFFFBFFEFE0FF882
:103FB0003FFC07F01FF803E00FF803E00FF003C029
:103FC0000FF003C00FF003C00FF003C00FF003C0E9
:103FD0000FF003C00FF003C00FF003C00FF003C0D9
:103FE0000FF003C00FF003C00FF003C00FF003C0C9
:103FF0000FF003C00FF003C00FF003C00FF003C0B9
:104000000FF003C00F007E0E1FF8E7FFCEFFFEEF9C
:1040100007FFE01FFC01FF800FF800FF000FF0001A
:10402000FF000FF000FF000FF000FF000FF000FF97
:10403000000FF000FF000FF000FF000FF000FF0086
:104040000FF000FF000F00FE0007FF003FFF80FFA2
:10405000FF83F83F87C01F1F001F3C001E78003DF4
:10406000F0007FC0007F8000FF0001FE0003FC0025
:1040700007F8000FF0001FF0007DE000F3C001E73B
:10408000C007C7C01F0FE0FE0FFFF80FFFE00FFFD4
:104090008003F80000FE038FFE0E7FFC3BFFF8FF5D
:1040A00087F3F807CFC00FBE001EF8007BE001FFCA
:1040B0000003FC000FF0003FC000FF0003FC000FF6
:1040C000F0003FC001FF8007BE001EFC00FBF807A8
:1040D000CFF07F3FFFF8F7FFC3C7FE0F07E03C00BC
:1040E00000F00003C0000F00003C0000F00003C01F
:1040F000000F00000000FE0007FF1C3FFF38FFFF1D
:1041000073F83FE7C01FDF001FBE001F78003FF0BD
:10411000007FC0007F8000FF0001FE0003FC00075D
:10412000F8000FF0001FF0007DE000FBC001F7C0B9
:1041300007E7C01FCFE0FF8FFFEF0FFFDE0FFE3C52
:1041400007F0780000F00001E00003C000078000E5
:104150000F00001E00003C00007800FE1FE7FEFF7D
:10416000FF8FC0F80F80F80F00F00F00F00F00F085
:104170000F00F00F00F00F00F00F00F00F00F00F35
:104180000001FC00FFF01FFF83FFFC3E07E7C03E7D
:104190007801E78000780007C0007E0003FC001F64
:1041A000FC00FFF803FFC003FE0003F0001F000047
:1041B000FF000FF000FF801F7E07E7FFFE3FFFC1FB
:1041C000FFF003FC001E0781E0781E078FFFFFFF52
:1041D000C781E0781E0781E0781E0781E0781E071E
:1041E00081E0781E0781E0781FC7F0FC1FF000FF18
:1041F000000FF000FF000FF000FF000FF000FF00C5
:104200000FF000FF000FF000FF000FF000FF000FA5
:10421000F000FF000FF000FF001FF001FF003FF86B
:1042200007FFE0FF7FFF77FFE71FFC707E0078004D
:104230003EF00079F000F1E003E3C00787C00F070C
:10424000803C0F00781F01F01E03C03C07807C1FDC
:1042500000783C00F07801F1E001E3C003C780037F
:10426000DE0007BC000F70000FE0001FC0003F0021
:10427000003E00007C00F803E0079E00FC01E780A0
:104280003F0079F00FC03E3C07F00F0F01FE03C363
:10429000C07F80F0781DE0781E0F381E0783CF079F
:1042A00081E0F3C1E03C38F0F00F1E1C3C03C787EF
:1042B0008F0071E1E3801E7079E007BC0E7801EF9A
:1042C00003DE003BC0F7000FE03FC003F807F0003B
:1042D0007E01F8001F807E0007C01F8001F003C030
:1042E000007C0078F003E1E00F07C0780F03E01EC8
:1042F0000F007C7800F3E001EF0007F8000FC0002A
:104300001F00007C0003F0000FE0007FC003CF001F
:104310000F1E00787C03E0F00F03E07807C3E00F86
:104320001F003E78007C78003DE001F780078F0099
:104330001E3C00F0F003C1E00F0780781E01E03C56
:104340000780F03C03C0F00787C01E1E007878008D
:10435000F3C003CF000F3C001FE0007F8001FE0090
:1043600003F0000FC0003E0000780001E0000F00E5
:10437000003C0001F0000780003E000FF0003FC04D
:1043800000FE0001E000007FFFF7FFFF7FFFF7FF67
:10439000FF0001E0003E0007C000F8001F0003E03E
:1043A000007C00078000F8001F0003E0007C000F85
:1043B0008001F0003E0003C0007C000FFFFFFFFF04
:1043C000FFFFFFFFFFF001E0FC1F8780E01C038080
:1043D000700E01C0380700E01C0380700E01C07829
:1043E0001E0F81E03C07C03C0380380700E01C033F
:1043F00080700E01C0380700E01C0380700F00FCC5
:104400001F80F0FFFFFFFFFFFFFFFFFFFFFFFFFF2A
:10441000FFFFFFF0F01F83F00F00E01C0380700E21
:1044200001C0380700E01C0380700E01C01C03C0EF
:104430003E03C0781F0780E0380700E01C0380704F
:104440000E01C0380700E01C0380701E1F83F07847
:10445000003E000FF00DFF01F0F87C0FFD807F8023
:1044600003E001036800207E16180A7F07207E1DE6
:104470006214C911207E2A3A27A124207E38000028
:104480000008000201000003040700000000000013
:10449000000000000000250028002B0000000000A4
:1044A000240027002A000404040404040404020273
:1044B00002020202030303030303010204081020A3
:1044C00040800102040810200102040810200E2D73
:1044D00011241FBECFEFD8E0DEBFCDBF21E0A6E4A0
:1044E000B1E001C01D92A63BB207E1F711E0A0E0E8
:1044F000B1E0EEECFEE502C005900D92A634B107E6
:10450000D9F712E2C8E6D2E204C02197FE010E9468
:104510006D2DC736D107C9F70E9474280C94652FFA
:104520000C9400008091AC019091AD01A091AE017E
:10453000B091AF010197A109B1098093AC019093AB
:10454000AD01A093AE01B093AF01892B8A2B8B2BC9
:1045500049F4E0916A01F0916B01808190916E01C4
:10456000892B80830895AC01E0916601F091670189
:10457000808190916F01892B8083E0916A01F09195
:104580006B01808190916E0190959823908380912A
:10459000600120E130E060E070E887FF12C05EBD9E
:1045A0000DB407FEFDCF4EBD0DB407FEFDCFE0916B
:1045B0006A01F0916B01808190916E01892B80835B
:1045C0000895E0916201F091630190916C01DA012C
:1045D000A623B7238081AB2BD9F0982B9083E09151
:1045E0006401F0916501808190916D01892B808338
:1045F000E0916401F0916501808190916D01909549
:10460000982390837695679521503109D1F6CFCFC5
:1046100090959823E3CF9C01E0916601F0916701AA
:10462000808190916F01909598239083E0916A0129
:10463000F0916B01808190916E0190959823908309
:104640008091600140E150E060E070E887FF12C0B7
:104650001EBC0DB407FEFDCF2EBD0DB407FEFDCF71
:10466000E0916A01F0916B01808190916E01892B3C
:1046700080830895E0916201F091630190916C0153
:10468000D901A623B7238081AB2BD9F0982B908337
:10469000E0916401F0916501808190916D01892B19
:1046A0008083E0916401F0916501808190916D01BA
:1046B0009095982390837695679541505109D1F64E
:1046C000CFCF90959823E3CFCF93DF93EB010E9458
:1046D0000B23CE01DF91CF910C94B3228091AC01DA
:1046E0009091AD01A091AE01B091AF01AC01BD01BF
:1046F0004F5F5F4F6F4F7F4F4093AC015093AD01C1
:104700006093AE017093AF01892B8A2B8B2B91F4B0
:104710008091600187FF04C080E58CBD81E08DBD84
:10472000E0916A01F0916B01908180916E0180951A
:10473000892380830895DC01FB0180917001823020
:10474000B9F0833069F1813051F580915801909131
:104750005901019720813181821B930B91838083C2
:104760002D913C9111978D939C93318320830895D3
:10477000809156019091570101972D913C9111978D
:10478000821B930B8D939C938091580190915901BA
:10479000019720813181821B930B9183808308953F
:1047A000809156019091570101972D913C9111975D
:1047B000821B930B11969C938E93208131812D93B4
:1047C0003C93EBCF2F923F924F925F926F927F92EA
:1047D0008F929F92AF92BF92CF92DF92EF92FF9211
:1047E0000F931F93CF93DF93CDB7DEB760970FB6CC
:1047F000F894DEBF0FBECDBF7C0178876F835E83E8
:104800004D833A8729878091B0019091B101892B1E
:1048100009F4ACC0712C272D30E0ED81FE8184813C
:1048200095812817390708F0A1C08081918140E067
:10483000009721F0820F931FFC0140812091B0016D
:104840003091B101F9013496549132978591949148
:10485000451BF7E04F9F800D911D1124F901259113
:1048600034913C872B87FC01C590D490FC01329693
:10487000049131964490319664903196A49031968B
:10488000B4900E946E23912C812C512C10E08F81CA
:1048900098858B0D911DB7FC9A959E878D87F701A2
:1048A000EA0DF11DA7FCFA95F88BEF87841408F048
:1048B00054C0B12CA12C2D843E84280C391C852D8C
:1048C0008A0DA01608F044C0877041F4C601019615
:1048D000EB85FC85EC0DFD1D14916C0117FF33C0B9
:1048E0008F8598898A0D9B1D9C838B833A822982B0
:1048F00020915601309157018217930720F580913E
:1049000058019091590128163906E8F4BE016F5FED
:104910007F4FCE0103960E949B230E946E236B81E2
:104920007C8180E290E00E94642369817A8181E247
:1049300090E00E94642369857A8582E290E00E947B
:1049400064230E949222110FFFEFAF1ABF0AB7CF64
:10495000500E2FEF821A920AA9CF0E9492223FEFA7
:10496000E31AF30AE60CF11C739455CF60960FB668
:10497000F894DEBF0FBECDBFDF91CF911F910F9195
:10498000FF90EF90DF90CF90BF90AF909F908F906F
:104990007F906F905F904F903F902F9008958F92EF
:1049A0009F92AF92BF92CF92DF92EF92FF920F93BE
:1049B0001F93CF93DF9310925301109252011092E4
:1049C000550110925401DC0114968D909C906091D9
:1049D000B0017091B101EB0124968B010B5F1F4F69
:1049E0006E5F7F4FE12CE7E0DE2EAE2CB12CA814D9
:1049F000B90408F042C0DC01ED91FC91F12C309734
:104A000019F0EA0DFB1DF080FE01C490F801A4919D
:104A1000FC14E0F0AF15D0F0FB0125913491AF2DDF
:104A2000AC19BB0BDA9EF001DB9EF00D11242E0FAA
:104A30003F1FF9013296E491F9013396E4914E2F2C
:104A400050E02C5F3F4FF901249130E0E09152019A
:104A5000F0915301E417F50724F450935301409368
:104A60005201E0915401F0915501E20FF31FF093D0
:104A70005501E0935401E394B8CFDF91CF911F919A
:104A80000F91FF90EF90DF90CF90BF90AF909F90ED
:104A90008F90089590E0FC01E654FB4B24918A55D9
:104AA0009B4BFC018491882399F090E0880F991F1B
:104AB000FC01E456FB4BA591B491FC01EE56FB4B77
:104AC000859194918FB7F894EC91E22BEC938FBF82
:104AD000089590E0FC01E258FB4B2491FC01E65460
:104AE000FB4B3491FC01EA55FB4BE491EE23C9F0FA
:104AF000222339F0233001F1A8F4213019F12230BA
:104B000029F1F0E0EE0FFF1FEE56FB4BA591B4919B
:104B10008FB7F894EC91611126C030953E233C93F9
:104B20008FBF08952730A9F02830C9F0243049F705
:104B3000809180008F7D03C0809180008F7780936B
:104B40008000DFCF84B58F7784BDDBCF84B58F7DC8
:104B5000FBCF8091B0008F778093B000D2CF80914F
:104B6000B0008F7DF9CF3E2BDACF1F93CF93DF9329
:104B70008093A30110916101112309F43CC0C091FD
:104B80007101D0E0811102C0D0E0C0E0812F0E940D
:104B90004A25209739F460E0812FDF91CF911F9152
:104BA0000C946925CF3FD10511F461E0F5CFE12FD9
:104BB000F0E0E258FB4BE491E33031F140F4E130B6
:104BC000B1F0E230E1F0C038D1057CF7E4CFE73056
:104BD00029F1E83059F1E430B1F78091800080622A
:104BE00080938000D0938B00C0938A0004C084B56A
:104BF000806884BDC7BDDF91CF911F91089584B5B2
:104C0000806284BDC8BDF7CF8091800080688093AA
:104C10008000D0938900C0938800EDCF8091B000D0
:104C200080688093B000C093B300E5CF8091B0005E
:104C300080628093B000C093B400DDCF3FB7F8949A
:104C400080914B0190914C01A0914D01B0914E018A
:104C500026B5A89B05C02F3F19F00196A11DB11DD7
:104C60003FBFBA2FA92F982F8827BC01CD01620F13
:104C7000711D811D911D42E0660F771F881F991FCE
:104C80004A95D1F708958F929F92AF92BF92CF929B
:104C9000DF92EF92FF924B015C010E941E266B0196
:104CA0007C010E941E266C197D098E099F09683EB1
:104CB000734081059105A8F321E0821A9108A108AB
:104CC000B10888EEC80E83E0D81EE11CF11C8114E7
:104CD0009104A104B10429F7FF90EF90DF90CF90E9
:104CE000BF90AF909F908F900895FF920F931F9366
:104CF000CF93DF93CDB7DEB728970FB6F894DEBF1A
:104D00000FBECDBFF09070011092700180EB90E06B
:104D100090935701809356018CED90E09093590148
:104D2000809358018FEA90E098878F838BED90E015
:104D30009E838D831C821B821A821982BE016D5F45
:104D40007F4FCE0101960E949B23BE016B5F7F4F78
:104D5000CE0107960E949B232F81388589819A81F5
:104D60002817390720F43A83298398878F832D8168
:104D70003E818B819C812817390720F43C832B834B
:104D80009E838D830E946E23E091700107E010E006
:104D9000EE2359F0E150FF0B24E0EE0FFF1F2A95A0
:104DA000E1F7EA5AFE4F02A513A5B80183E0660FAA
:104DB000771F8A95E1F7706183E090E00E94642399
:104DC0006F81788586E390E00E94642369817A810F
:104DD00087E390E00E9464236D817E8188E390E008
:104DE0000E9464236B817C8189E390E00E946423AC
:104DF000159507950130110509F469C00CF057C0ED
:104E00006F817885012B09F464C082E290E00E94F2
:104E10000B230E9492220E946E2300E417E990E087
:104E200080E00E94B32201501109C9F70E9492222A
:104E30006FEA70E086E390E00E94642370E060E037
:104E400087E390E00E9464236BED70E088E390E0DC
:104E50000E94642370E060E089E390E00E94642394
:104E60008F2D837080937001813009F440C08330AE
:104E7000F1F180EB90E090935701809356018CED17
:104E800090E090935901809358016AE070E080E0CF
:104E900090E00E94432628960FB6F894DEBF0FBE1E
:104EA000CDBFDF91CF911F910F91FF9008950230F8
:104EB0001105D1F069817A810330110509F0A5CF80
:104EC00080E290E00E9464236B817C8108C069814C
:104ED0007A8180E290E00E9464236D817E8181E28C
:104EE00090E00E94642391CF6F817885E9CF8CEDAB
:104EF00090E0909357018093560180EB90E0C1CFF2
:104F00000F931F93CF93DF93EC01888199810097D2
:104F100059F02A813B812617370730F081E0DF9175
:104F2000CF911F910F9108958B016F5F7F4F0E946A
:104F3000982E009759F0998388831B830A832C81CC
:104F40003D81232B59F7FC011082E8CF80E0E7CFA9
:104F5000FC0180819181009711F00C940F2E08952F
:104F6000EF92FF920F931F93CF93DF93EC0119827F
:104F700018821B821A821D821C8286179707D9F01D
:104F8000FB010081118101151105A9F0E480F58074
:104F9000B7010E94802728813981811113C0211512
:104FA000310519F0C9010E940F2E198218821D8245
:104FB0001C821B821A82DF91CF911F910F91FF906B
:104FC000EF900895FD82EC82B801C901DF91CF9185
:104FD0001F910F91FF90EF900C945E2FEF92FF9234
:104FE0000F931F93CF93DF93EC017B0119821882FB
:104FF0001B821A821D821C82FB0101900020E9F7AE
:1050000031978F01061B170BB8010E94802728815A
:105010003981811113C02115310519F0C9010E9490
:105020000F2E198218821D821C821B821A82DF9128
:10503000CF911F910F91FF90EF9008951D830C83E6
:10504000B701C901DF91CF911F910F91FF90EF90B0
:105050000C945E2F1F920F920FB60F9211242F9374
:105060003F938F939F93AF93BF938091470190910C
:105070004801A0914901B0914A013091460123E0D5
:10508000230F2D3758F50196A11DB11D2093460120
:105090008093470190934801A0934901B0934A013E
:1050A00080914B0190914C01A0914D01B0914E0126
:1050B0000196A11DB11D80934B0190934C01A093CB
:1050C0004D01B0934E01BF91AF919F918F913F9150
:1050D0002F910F900FBE0F901F90189526E8230F69
:1050E0000296A11DB11DD2CFCF93DF93CDB7DEB70E
:1050F000E6970FB6F894DEBF0FBECDBF789484B5A7
:10510000826084BD84B5816084BD85B5826085BDC3
:1051100085B5816085BD80916E00816080936E0051
:105120001092810080918100826080938100809143
:1051300081008160809381008091800081608093F4
:1051400080008091B10084608093B1008091B000B4
:1051500081608093B00080917A00846080937A00AF
:1051600080917A00826080937A0080917A008160D9
:1051700080937A0080917A00806880937A00109200
:10518000C10080915C0118163CF40E944A2560E041
:1051900080915C010E9469258091610118162CF4B0
:1051A0000E944A2580E00E94B52580915D010E9401
:1051B0004A2560E080915D010E94692580915E0131
:1051C0000E944A2561E080915E010E9469258091DC
:1051D0005E01082E000C990BFC01EA55FB4BE49193
:1051E000F0E0EE0FFF1FEE56FB4B2591349130930C
:1051F0006B0120936A01FC01E654FB4BE491E093C0
:105200006E0180915D01082E000C990BFC01EA559E
:10521000FB4BE491F0E0EE0FFF1FEE56FB4B2591A8
:1052200034913093670120936601FC01E654FB4BF7
:10523000E491E0936F018091600187FDE2C380916A
:105240005F010E944A2560E080915F010E9469250C
:10525000809160010E944A2561E0809160010E9476
:10526000692580916001082E000C990BFC01EA551C
:10527000FB4BE491F0E0EE0FFF1FEE56FB4BA591C8
:10528000B491B0936501A093640186549B4BFC01DB
:10529000849180936D0120915F01022E000C330BED
:1052A000F901EA55FB4BE491F0E0EE0FFF1FEE56DB
:1052B000FB4B459154915093630140936201F90176
:1052C000E654FB4BE491E0936C01EC9180958E23C6
:1052D0008C93E0916201F0916301908180916C0167
:1052E0008095892380838091600187FF30C01FB73C
:1052F000F89480914F01811124C0E0EBF4E4849193
:10530000E4ECF4E49491E82FF0E0EE0FFF1FE45694
:10531000FB4BA591B491EC91E92321F461E08AE083
:105320000E9469258AE00E944A258CB580618CBD67
:105330008CB580648CBD8DE00E944A258BE00E9474
:105340004A2580914F018F5F80934F011FBF80914D
:105350005C011816FCF461E00E94692561E070E0D0
:1053600080E090E00E94432660E080915C010E9412
:1053700069256AE070E080E090E00E94432661E0E9
:1053800080915C010E94692562E370E080E090E01A
:105390000E9443260E946E2370E060E080E190E06E
:1053A0000E94642370E060E081E190E00E94642349
:1053B00070E060E082E190E00E94642370E060E0D1
:1053C00083E190E00E94642370E060E084E190E07B
:1053D0000E9464230E94922268E270E080E090E0E4
:1053E0000E9443260E946E2368E170E081E190E014
:1053F0000E94642361E271E682E190E00E946423EE
:105400006FE670E083E190E00E9464236FE579E449
:1054100084E190E00E94642360E078E080E190E025
:105420000E9464230E9492226AE070E080E090E093
:105430000E9443260E946E236BE370E181E190E0BD
:105440000E9464230E94922262E370E080E090E078
:105450000E9443260E946E236CE171E081E090E09F
:105460000E94642360E071E082E090E00E94642387
:1054700068E370E183E090E00E94642370E060E004
:1054800087E090E00E94642368E078E088E090E0A4
:105490000E94642360E071E18BE090E00E9464234D
:1054A00070E060E08CE090E00E94642361E07DE0C9
:1054B0008FE090E00E94642360E270E085E190E07C
:1054C0000E94642370E060E080E290E00E94642328
:1054D00070E060E081E290E00E94642370E060E0B0
:1054E00080E390E00E9464236BED70E081E390E044
:1054F0000E94642370E060E082E390E00E946423F5
:1055000070E060E083E390E00E9464236BED70E064
:1055100084E390E00E94642370E060E085E390E023
:105520000E9464236FEA70E086E390E00E946423A7
:1055300070E060E087E390E00E9464236BED70E030
:1055400088E390E00E94642370E060E089E390E0EB
:105550000E94642370E060E080E590E00E94642394
:1055600068E078E081E590E00E9464236AE078E0FA
:1055700082E590E00E9464236AE070E083E590E0B9
:105580000E94642368E07AE084E590E00E9464234E
:1055900068E078E085E590E00E94642370E060E0D8
:1055A00086E590E00E94642360E07AE087E590E081
:1055B0000E94642360E177E088E590E00E94642324
:1055C00060E177E089E590E00E94642362E170E0A9
:1055D00087E090E00E9464230E94922262E370E0E0
:1055E00080E090E00E9443260E946E2367E170E114
:1055F00087E090E00E9464230E94922281E00E9452
:10560000B5251092700180EB90E090935701809344
:1056100056018CED90E090935901809358011092BF
:105620005B0110925A010E9475260E94752666E35E
:1056300071E0CE01C1960E94EE2787E7A82E84E490
:10564000B82EB092B101A092B001BE016F5C7F4F45
:10565000CE0101960E94B027CE0101960E94CF2470
:10566000CE0101960E94A827C0905201D09053010C
:10567000BE016F5C7F4FCE0101960E94B02720E0F3
:1056800038EFAE014F5F5F4FB60190E080E00E94BF
:10569000E223CE0101960E94A82790E7892E94E488
:1056A000992E9092B1018092B0016DE371E0CE012C
:1056B0008B960E94EE27BE01655D7F4FCE0101965D
:1056C0000E94B027CE0101960E94CF24CE01019600
:1056D0000E94A827E0905201F0905301FAE0EF0EEB
:1056E000F11CCE0CDF1CBE01655D7F4FCE01019623
:1056F0000E94B02720EE37E0AE014F5F5F4FB6014A
:1057000090E080E00E94E223CE0101960E94A8274B
:1057100009E614E41093B1010093B0016DE371E068
:10572000CE0185960E94EE27BE016B5D7F4FCE01B4
:1057300001960E94B027CE0101960E94CF24CE018F
:1057400001960E94A827E0905201F09053018AE050
:10575000E80EF11CEC0CFD1CBE016B5D7F4FCE0111
:1057600001960E94B0272FEF3FEFAE014F5F5F4FD2
:10577000B70190E080E00E94E223CE0101960E94F2
:10578000A82722E6C22E24E4D22ED092B101C092E4
:10579000B0016DE371E0CE014F960E94EE27BE018D
:1057A000615E7F4FCE0101960E94B027CE01019627
:1057B0000E94CF24CE0101960E94A8278091520119
:1057C000909153010A96E80EF91EBE01615E7F4F6B
:1057D000CE0101960E94B0272FE130E0AE014F5F6D
:1057E0005F4FB70190E080E00E94E223CE01019676
:1057F0000E94A82768E873E180E090E00E944326B9
:1058000066E371E0CE0149960E94EE27B092B101A5
:10581000A092B001BE01675E7F4FCE0101960E944B
:10582000B027CE0101960E94CF24CE0101960E949E
:10583000A827A0905201B0905301BE01675E7F4F30
:10584000CE0101960E94B02728E03BEFAE014F5FEA
:105850005F4FB50190E080E00E94E223CE01019607
:105860000E94A8279092B1018092B0016DE371E08F
:10587000CE0143960E94EE27BE016D5E7F4FCE01A2
:1058800001960E94B027CE0101960E94CF24CE013E
:1058900001960E94A827E0905201F0905301EAE09F
:1058A000EE0EF11CEA0CFB1CBE016D5E7F4FCE01BB
:1058B00001960E94B0272DE13CEEAE014F5F5F4F95
:1058C000B70190E080E00E94E223CE0101960E94A1
:1058D000A8271093B1010093B0016DE371E0CE01F0
:1058E0000D960E94EE27BE01635F7F4FCE010196A9
:1058F0000E94B027CE0101960E94CF24CE010196CE
:105900000E94A8270091520110915301065F1F4F7A
:10591000E00EF11EBE01635F7F4FCE0101960E9433
:10592000B02728E136ECAE014F5F5F4FB70190E042
:1059300080E00E94E223CE0101960E94A827D09227
:10594000B101C092B0016DE371E0CE0107960E94F3
:10595000EE27BE01695F7F4FCE0101960E94B027FE
:10596000CE0101960E94CF24CE0101960E94A82765
:105970000091520110915301065F1F4F0E0D1F1D24
:105980001093510100935001BE01695F7F4FCE011A
:1059900001960E94B02720E23DEFAE014F5F5F4FBE
:1059A000B80190E080E00E94E223CE0101960E94BF
:1059B000A827CE0107960E94A827CE010D960E9427
:1059C000A827CE0143960E94A827CE0149960E949F
:1059D000A827CE014F960E94A827CE0185960E9447
:1059E000A827CE018B960E94A827CE01C1960E94BF
:1059F000A82700E010E001151105E9F30E9400005E
:105A0000FACF109265011092640110926D0110920C
:105A100063011092620110926C0165CC80E3E6E0B4
:105A2000F1E0A2E7B1E001900D928A95E1F7E6E599
:105A3000F1E082E1868381E1878383E1808780E1F1
:105A400081878FE082878EE0838788EC838F109236
:105A5000A2011092AC011092AD011092AE01109211
:105A6000AF011092B1011092B00108952F923F92B0
:105A70004F925F926F927F928F929F92AF92BF925E
:105A8000CF92DF92EF92FF920F931F93CF93DF930A
:105A9000CDB7DEB7CA1BDB0B0FB6F894DEBF0FBE67
:105AA000CDBF09942A88398848885F846E847D84B4
:105AB0008C849B84AA84B984C884DF80EE80FD80B6
:105AC0000C811B81AA81B981CE0FD11D0FB6F8942C
:105AD000DEBF0FBECDBFED010895EE0FFF1F059095
